:020000040000FA
:100000000C9463000C948B000C948B000C94B9023C
:100010000C94B9020C94B9020C948B000C948B00D4
:100020000C948B000C948B000C948B000C94550258
:100030000C948B000C948B000C948B000C948B0014
:100040000C940B020C948B000C948B000C948B0082
:100050000C948B000C948B000C948B000C948B00F4
:100060000C948B000C948B000000000023002600F1
:10007000290000000000240027002A0000000000E2
:10008000250028002B0004040404040404040202D4
:100090000202020203030303030301020408102007
:1000A0004080010204081020010204081020000012
:1000B0000008000201000003040700000000000027
:1000C00000008904F60411241FBECFEFD8E0DEBF84
:1000D000CDBF11E0A0E0B1E0E8EFFAE002C005908A
:1000E0000D92A231B107D9F721E0A2E1B1E001C040
:1000F0001D92A73AB207E1F710E0C2E6D0E004C0D3
:100100002197FE010E946905C136D107C9F70E94F7
:1001100031030C946F050C94000090E0FC01E25553
:10012000FF4F2491FC01E656FF4F3491FC01EA5742
:10013000FF4FE491EE23C9F0222339F0233001F17F
:10014000A8F4213019F1223029F1F0E0EE0FFF1F61
:10015000E458FF4FA591B4918FB7F894EC916111D9
:1001600026C030953E233C938FBF08952730A9F0D9
:100170002830C9F0243049F7809180008F7D03C07A
:10018000809180008F7780938000DFCF84B58F7758
:1001900084BDDBCF84B58F7DFBCF8091B0008F779E
:1001A0008093B000D2CF8091B0008F7DF9CF3E2BED
:1001B000DACFCF93DF9390E0FC01E656FF4F249116
:1001C0008A579F4FFC0184918823D1F090E0880FDB
:1001D000991FFC01EE58FF4FA591B491FC01E45822
:1001E000FF4FC591D49161110EC09FB7F8948C91C7
:1001F000E22FE0958E238C932881E223E8839FBF32
:10020000DF91CF9108958FB7F894EC91E22BEC93A6
:100210008FBFF6CF3FB7F8948091A3019091A401CE
:10022000A091A501B091A60126B5A89B05C02F3FBE
:1002300019F00196A11DB11D3FBFBA2FA92F982F0C
:100240008827BC01CD01620F711D811D911D42E007
:10025000660F771F881F991F4A95D1F70895AF92AF
:10026000BF92CF92DF92EF92FF920F931F93CF93A3
:10027000DF936C017B018B01040F151FEB015E0105
:10028000AE18BF08C017D10759F06991D601ED919A
:10029000FC910190F081E02DC6010995892B79F739
:1002A000C501DF91CF911F910F91FF90EF90DF90EB
:1002B000CF90BF90AF9008952091790130917A014D
:1002C0002817390771F49091770180917801981778
:1002D00041F0E0917701F0E0EE5EFE4F808190E02A
:1002E00008958FEF9FEF08950895EF92FF920F9377
:1002F0001F93CF93DF93DC015C96ED90FC905D97AC
:10030000E114F10479F481E090E013969C938E93CC
:10031000129790E080E0DF91CF911F910F91FF90B5
:10032000EF9008955196ED91FC91529750968C91D3
:100330005097982F90950FB75E962C915E97122F3D
:10034000127021FD6095F8942081112319F1282B5A
:100350002083E7012197F1F728E0462F50E0308114
:1003600060FF1AC0382B3083E7012197F1F7BA01FB
:1003700075956795215089F7112381F08081892334
:1003800080830FBF5C968D919C910197F1F781E07E
:1003900090E0C1CF2923DCCF3923E5CF9081892B91
:1003A000EFCF2091790130917A012817390761F454
:1003B000809178012091770190E0805C9F4F821BB3
:1003C00091098F739927089590E080E00895209116
:1003D000790130917A0128173907B9F490917701A2
:1003E00080917801981789F0E0917701F0E0EE5E56
:1003F000FE4F80812091770130E02F5F3F4F2F73B8
:1004000033272093770190E008958FEF9FEF0895B1
:1004100090E080E008951F920F920FB60F92112482
:100420002F933F938F939F93AF93BF9380919F019F
:100430009091A001A091A101B091A20130919E01E3
:1004400023E0230F2D3758F50196A11DB11D2093F0
:100450009E0180939F019093A001A093A101B0936E
:10046000A2018091A3019091A401A091A501B09156
:10047000A6010196A11DB11D8093A3019093A40133
:10048000A093A501B093A601BF91AF919F918F91C9
:100490003F912F910F900FBE0F901F90189526E857
:1004A000230F0296A11DB11DD2CF1F920F920FB63E
:1004B0000F9211242F933F938F939F93EF93FF936A
:1004C0008091760187FF1FC01092850010928400F2
:1004D000809176018F5F809376018091760187FF0E
:1004E00004C0809176018C30ACF0809184009091B2
:1004F0008500049680349C4990F18091840090910D
:10050000850004962EC08091760187FFE1CF80910F
:100510007601DECF2091840030918500E091760154
:100520008E2FEE0F990BFC01EE0FFF1FE80FF91F46
:10053000EE5AFE4F81819281820F931F9093890022
:100540008093880080917601FF91EF919F918F9128
:100550003F912F910F900FBE0F901F90189580E440
:100560009CE990938900809388008FEF80937601B7
:10057000EBCF1F920F920FB60F9211242F933F9340
:100580004F935F936F937F938F939F93AF93BF939B
:10059000EF93FF93E0917901F0917A01309749F060
:1005A000A685B7858585968D91FF14C09C9189237A
:1005B000A1F4FF91EF91BF91AF919F918F917F91A6
:1005C0006F915F914F913F912F910F900FBE0F90C0
:1005D0001F9018959C91892361F7A389B4899C91F8
:1005E0008589809589238C93868997890197F1F76E
:1005F000608D718DA685B785558538E020E0CB01EB
:100600000197F1F7822F90E095958795282F4C91CF
:10061000452309F02068315091F7868D81FD2095A2
:100620008091780190E001968F739927309177013E
:10063000381799F0A0917801B0E0AE5EBE4F2C93D0
:1006400080937801828D938D0197F1F7A389B48906
:100650008C919589892B8C93ACCF868D8160868F08
:10066000F1CF789484B5826084BD84B5816084BD07
:1006700085B5826085BD85B5816085BD80916E0040
:10068000816080936E001092810080918100826071
:1006900080938100809181008160809381008091AE
:1006A00080008160809380008091B100846080939D
:1006B000B1008091B00081608093B00080917A0099
:1006C000846080937A0080917A00826080937A00BF
:1006D00080917A00816080937A0080917A008068AE
:1006E00080937A001092C1001092960110929501A9
:1006F0001092940110929301109292011092910124
:100700008DE991E0909398018093970190918701F2
:10071000963108F047C02DEB30E0309392012093E2
:1007200091012BE931E030939401209393012CE265
:1007300031E030939601209395012091680084E088
:10074000983048F031E09E3008F430E081E001C09C
:10075000880F3A95EAF7822B809368002DE630E007
:10076000983050F02BE630E09E3030F02CE630E050
:10077000963110F030E020E030938F0120938E010D
:10078000292F30E0983008F0B7C081E001C0880F11
:100790009A95EAF780939001809197019091980142
:1007A0000197F1F78091950190919601892B49F17C
:1007B000E0917901F0917A0121E0EB37F20709F13C
:1007C000309739F0A389B4899C91858980958923D4
:1007D0008C93809199018E7F80939901109278017A
:1007E000109277018BE791E090937A0180937901E1
:1007F000E0918E01F0918F01808190919001892B81
:10080000808361E08CE00E94D90060E08EE00E946D
:10081000D90090E4392E88248A9423E0922EA12CCA
:10082000B12C00E010E030927C0080917A0080646E
:1008300080937A0080917A0086FDFCCFA0917800A9
:10084000B091790024EB30E00E946205A50194018B
:100850000E941205C22FD32FD0939D01C0939C01FB
:1008600080919A0190919B01C817D90729F0622FB6
:100870008BE791E00E947501D0939B01C0939A0190
:100880008BE791E00E94D101892B59F08BE791E031
:100890000E94E70161E0892B09F060E08CE00E9492
:1008A0008D000E940A012B013C0184E6C82ED12C48
:1008B000E12CF12C0E940A01641975098609970937
:1008C000683E734081059105A8F321E0C21AD10862
:1008D000E108F10888EE480E83E0581E611C711C87
:1008E000C114D104E104F10429F70115110509F43B
:1008F0009ACF0E94000097CF9E3040F428503109D3
:1009000081E001C0880F2A95EAF744CF2E503109C3
:10091000F7CF10927E0110927D0188EE93E0A0E067
:10092000B0E080937F0190938001A0938101B09308
:10093000820184E091E090937C0180937B0110928E
:1009400092011092910110929401109293011092D1
:100950009601109295011092980110929701609162
:1009600099016E7F6D7F609399016695617081E05A
:10097000682782E00E948D0061E082E00E94D90039
:10098000ECE9F0E0E491E0938B01E8E8F0E0E49139
:10099000F0E0EE0FFF1FE458FF4F85919491909384
:1009A0008D0180938C0160E083E00E94D9008091EA
:1009B000990181FD04C061E083E00E948D0083E025
:1009C00080938701EDE9F0E0E491E0938801E9E8A4
:1009D000F0E0E491F0E0EE0FFF1FE859FF4F859142
:1009E000949190938A0180938901089584E091E025
:1009F00090937C0180937B018091790190917A01A1
:100A00008B57914071F4E0918E01F0918F019081AC
:100A10008091900180958923808310927A011092B1
:100A200079010895052E97FB1EF400940E94290574
:100A300057FD07D00E94310507FC03D04EF40C94FB
:100A4000290550954095309521953F4F4F4F5F4F69
:100A5000089590958095709561957F4F8F4F9F4F2A
:100A60000895A1E21A2EAA1BBB1BFD010DC0AA1FEF
:100A7000BB1FEE1FFF1FA217B307E407F50720F007
:100A8000A21BB30BE40BF50B661F771F881F991F82
:100A90001A9469F760957095809590959B01AC01CB
:100AA000BD01CF010895A29FB001B39FC001A39FD4
:100AB000700D811D1124911DB29F700D811D112497
:100AC000911D08950E945305B7FF0895821B930B53
:100AD0000895EE0FFF1F0590F491E02D099410E0AA
:100AE000C2E6D0E004C0FE010E9469052196C3362B
:100AF000D107C9F7F894FFCF0000000075012F015E
:0A0B000008027401D101E7015C0155
:107E0000112484B714BE81FFF0D085E080938100F7
:107E100082E08093C00088E18093C10086E0809377
:107E2000C20080E18093C4008EE0C9D0259A86E02C
:107E300020E33CEF91E0309385002093840096BBD3
:107E4000B09BFECF1D9AA8958150A9F7CC24DD24C4
:107E500088248394B5E0AB2EA1E19A2EF3E0BF2EE7
:107E6000A2D0813461F49FD0082FAFD0023811F036
:107E7000013811F484E001C083E08DD089C08234E0
:107E800011F484E103C0853419F485E0A6D080C0E4
:107E9000853579F488D0E82EFF2485D0082F10E0AE
:107EA000102F00270E291F29000F111F8ED06801E7
:107EB0006FC0863521F484E090D080E0DECF843638
:107EC00009F040C070D06FD0082F6DD080E0C81688
:107ED00080E7D80618F4F601B7BEE895C0E0D1E017
:107EE00062D089930C17E1F7F0E0CF16F0E7DF06D8
:107EF00018F0F601B7BEE89568D007B600FCFDCFD4
:107F0000A601A0E0B1E02C9130E011968C91119780
:107F100090E0982F8827822B932B1296FA010C0160
:107F200087BEE89511244E5F5F4FF1E0A038BF0790
:107F300051F7F601A7BEE89507B600FCFDCF97BE46
:107F4000E89526C08437B1F42ED02DD0F82E2BD052
:107F50003CD0F601EF2C8F010F5F1F4F84911BD097
:107F6000EA94F801C1F70894C11CD11CFA94CF0C13
:107F7000D11C0EC0853739F428D08EE10CD085E9AC
:107F80000AD08FE07ACF813511F488E018D01DD067
:107F900080E101D065CF982F8091C00085FFFCCF94
:107FA0009093C60008958091C00087FFFCCF809118
:107FB000C00084FD01C0A8958091C6000895E0E648
:107FC000F0E098E1908380830895EDDF803219F02E
:107FD00088E0F5DFFFCF84E1DECF1F93182FE3DFCA
:107FE0001150E9F7F2DF1F91089580E0E8DFEE27F6
:047FF000FF270994CA
:027FFE00040479
:00000001FF
