:020000040000FA
:100000000C9463000C948B000C948B000C94A30351
:100010000C94A3030C94A3030C948B000C948B00FE
:100020000C948B000C948B000C948B000C94E702C6
:100030000C948B000C948B000C948B000C948B0014
:100040000C949D020C948B000C948B000C948B00F0
:100050000C948B000C948B000C948B000C948B00F4
:100060000C948B000C948B000000000023002600F1
:10007000290000000000240027002A0000000000E2
:10008000250028002B0004040404040404040202D4
:100090000202020203030303030301020408102007
:1000A0004080010204081020010204081020000012
:1000B0000008000201000003040700000000000027
:1000C0000000DC05630611241FBECFEFD8E0DEBFC1
:1000D000CDBF11E0A0E0B1E0E2E0FEE002C005909B
:1000E0000D92A431B107D9F721E0A4E1B1E001C03C
:1000F0001D92AD3AB207E1F710E0C2E6D0E004C0CD
:100100002197FE010E94EE06C136D107C9F70E9471
:100110001B040C94F4060C940000CF92DF92EF9233
:10012000FF92DC01A03282E0B807D4F5A53BB1050F
:1001300014F0A4EBB0E04091AB0128E830E0241BC0
:10014000310947FD3395220F331F220F331F6901F9
:10015000330FEE08FF084091AC0128E532E0241B84
:10016000310947FD3395220F331F220F331F032E12
:10017000000C440B550B2C193D094E095F09B7FFC4
:1001800002C0B0E0A0E00E94A90624EB30E040E00D
:1001900050E00E947F06C20ED31EE41EF51ED6015B
:1001A000E091AA01EC3080F52091AB0188E890E065
:1001B000821B910927FD9395880F991F880F991F1E
:1001C000A817B90784F02091AC0188E592E0821B62
:1001D000910927FD9395880F991F880F991FA817DC
:1001E000B9070CF4CD010297880F991F4FB7F89407
:1001F0002E2F30E0F901EE0FFF1FE20FF31FEA5739
:10020000FE4F928381834FBFFF90EF90DF90CF909E
:100210000895833081F028F4813099F08230A9F07C
:1002200008958730A9F08830C9F08430B1F4809106
:1002300080008F7D03C0809180008F778093800045
:10024000089584B58F7784BD089584B58F7DFBCFE5
:100250008091B0008F778093B00008958091B000B6
:100260008F7DF9CF1F93CF93DF93282F30E0F901D3
:10027000E255FF4F8491F901E656FF4FD491F90101
:10028000EA57FF4FC491CC23A9F0162F81110E9489
:100290000901EC2FF0E0EE0FFF1FE458FF4FA5918E
:1002A000B4918FB7F894EC91111108C0D095DE236A
:1002B000DC938FBFDF91CF911F910895DE2BF8CF94
:1002C000CF93DF9390E0FC01E656FF4F24918A57CD
:1002D0009F4FFC0184918823C9F090E0880F991FFB
:1002E000FC01EE58FF4FA591B491FC01E458FF4F7B
:1002F000C591D49161110DC09FB7F8948C91209550
:1003000082238C938881282328839FBFDF91CF91FC
:100310000895623051F49FB7F8943C91822F8095F4
:1003200083238C93E8812E2BEFCF8FB7F894EC9139
:100330002E2B2C938FBFEACF3FB7F8948091820188
:1003400090918301A0918401B091850126B5A89B6D
:1003500005C02F3F19F00196A11DB11D3FBFBA2F57
:10036000A92F982F8827BC01CD01620F711D811D17
:10037000911D42E0660F771F881F991F4A95D1F79C
:100380000895AF92BF92CF92DF92EF92FF920F93B8
:100390001F93CF93DF936C017B018B01040F151F1B
:1003A000EB015E01AE18BF08C017D10759F0699183
:1003B000D601ED91FC910190F081E02DC6010995E7
:1003C000892B79F7C501DF91CF911F910F91FF9094
:1003D000EF90DF90CF90BF90AF900895209158019B
:1003E000309159012817390771F490915601809185
:1003F0005701981741F0E0915601F0E0EC5EFE4F96
:10040000808190E008958FEF9FEF08950895EF9217
:10041000FF920F931F93CF93DF93DC015C96ED90D7
:10042000FC905D97E114F10479F481E090E013967B
:100430009C938E93129790E080E0DF91CF911F9173
:100440000F91FF90EF9008955196ED91FC91529786
:1004500050968C915097982F90950FB75E962C914F
:100460005E97122F127021FD6095F8942081112360
:1004700019F1282B2083E7012197F1F728E0462F77
:1004800050E0308160FF1AC0382B3083E70121979C
:10049000F1F7BA0175956795215089F7112381F01D
:1004A0008081892380830FBF5C968D919C910197F9
:1004B000F1F781E090E0C1CF2923DCCF3923E5CFEC
:1004C0009081892BEFCF2091580130915901281745
:1004D000390761F4809157012091560190E0805CCA
:1004E0009F4F821B91098F739927089590E080E0B8
:1004F0000895209158013091590128173907B9F40E
:100500009091560180915701981789F0E09156011A
:10051000F0E0EC5EFE4F80812091560130E02F5FCD
:100520003F4F2F7333272093560190E008958FEFAC
:100530009FEF089590E080E008951F920F920FB60C
:100540000F9211242F933F938F939F93AF93BF9359
:1005500080917E0190917F01A0918001B0918101F5
:1005600030917D0123E0230F2D3758F50196A11D11
:10057000B11D20937D0180937E0190937F01A09314
:100580008001B09381018091820190918301A091BB
:100590008401B09185010196A11DB11D8093820156
:1005A00090938301A0938401B0938501BF91AF9193
:1005B0009F918F913F912F910F900FBE0F901F90A1
:1005C000189526E8230F0296A11DB11DD2CF1F92C8
:1005D0000F920FB60F9211242F933F934F935F9377
:1005E0006F937F938F939F93AF93BF93CF93DF933B
:1005F000EF93FF9380915501C0915401D0E087FFA4
:1006000024C01092850010928400809155018F5F64
:100610008093550180915501082E000C990B8C1781
:100620009D0724F4809155018C30C4F180918400A1
:1006300090918500049680349C4908F47AC080919A
:10064000840090918500049676C080915501082E13
:10065000000C990B8C179D07C4F6E09155018E2F65
:10066000EE0F990BFC01EE0FFF1FE80FF91FEA5781
:10067000FE4F808186FFC9CFE09155018E2FEE0F8E
:10068000990BFC01EE0FFF1FE80FF91FEA57FE4F11
:10069000808160E08F730E943201B7CF2091840087
:1006A00030918500E09155018E2FEE0F990BFC01E2
:1006B000EE0FFF1FE80FF91FEA57FE4F818192816D
:1006C000820F931F9093890080938800E0915501D9
:1006D0008E2FEE0F990BFC01EE0FFF1FE80FF91F95
:1006E000EA57FE4F808186FF11C0E09155018E2FA1
:1006F000EE0F990BFC01EE0FFF1FE80FF91FEA57F1
:10070000FE4F808161E08F730E943201FF91EF9173
:10071000DF91CF91BF91AF919F918F917F916F9119
:100720005F914F913F912F910F900FBE0F901F90AF
:10073000189580E49CE990938900809388008FEF5E
:1007400080935501E3CF1F920F920FB60F921124A1
:100750002F933F934F935F936F937F938F939F93C9
:10076000AF93BF93EF93FF93E0915801F09159013C
:10077000309749F0A685B7858585968D91FF14C081
:100780009C918923A1F4FF91EF91BF91AF919F912B
:100790008F917F916F915F914F913F912F910F902A
:1007A0000FBE0F901F9018959C91892361F7A38924
:1007B000B4899C918589809589238C9386899789B2
:1007C0000197F1F7608D718DA685B785558538E065
:1007D00020E0CB010197F1F7822F90E09595879566
:1007E000282F4C91452309F02068315091F7868DD0
:1007F00081FD20958091570190E001968F73992794
:1008000030915601381799F0A0915701B0E0AC5ED5
:10081000BE4F2C9380935701828D938D0197F1F7F2
:10082000A389B4898C919589892B8C93ACCF868DC3
:100830008160868FF1CF789484B5826084BD84B561
:10084000816084BD85B5826085BD85B5816085BDCB
:1008500080916E00816080936E0010928100809183
:10086000810082608093810080918100816080930B
:100870008100809180008160809380008091B10030
:1008800084608093B1008091B00081608093B0005B
:1008900080917A00846080937A0080917A008260EF
:1008A00080937A0080917A00816080937A008091B1
:1008B0007A00806880937A001092C10010927901CA
:1008C00010927801109277011092760110927501C2
:1008D000109274018DE991E090937B0180937A01ED
:1008E00090916A01963108F047C02DEB30E03093CB
:1008F0007501209374012BE931E030937701209347
:1009000076012CE231E03093790120937801209137
:10091000680084E0983048F031E09E3008F430E020
:1009200081E001C0880F3A95EAF7822B8093680036
:100930002DE630E0983050F02BE630E09E3030F07D
:100940002CE630E0963110F030E020E03093720178
:1009500020937101292F30E0983008F01DC181E00B
:1009600001C0880F9A95EAF78093730180917A010C
:1009700090917B010197F1F7809178019091790135
:10098000892B49F1E0915801F091590121E0EE35B0
:10099000F20709F1309739F0A389B4899C918589D0
:1009A000809589238C9380917C018E7F80937C013C
:1009B00010925701109256018EE591E090935901E3
:1009C00080935801E0917101F091720180819091C2
:1009D0007301892B80838091AA018C3008F051C06B
:1009E00061E089E00E9460018091AA01282F30E037
:1009F000F901EE0FFF1FE20FF31FEA57FE4F908140
:100A0000907C996090831092AB011092AC012CE025
:100A1000622F0E94E206829FB001112430E020E0A4
:100A2000AB01420F531FFA01EE0FFF1FE40FF51F3A
:100A3000EA57FE4F908196FD16C02F5F3F4F2C3036
:100A4000310571F781110FC01092800082E0809310
:100A500081001092850010928400B19A80916F00FD
:100A6000826080936F00E091AA018E2F90E0FC01DC
:100A7000EE0FFF1FE80FF91FEA57FE4F80818064D9
:100A8000808362E085E00E94600161E089E00E946D
:100A9000600180915C0190915D010E948D0023EBCB
:100AA000822E20E0922ECFE9D0E00BE810E030E07B
:100AB000A32E30E0B32E332433948EE591E00E94D0
:100AC0006302892B41F08EE591E00E9479029093B8
:100AD0005D0180935C01E0905C01F0905D0180918C
:100AE0005A0190915B01E816F90639F085EBE8169A
:100AF000F10418F4C7010E948D00F0925B01E092AE
:100B00005A01F4018491FE01F490F801E490EE2082
:100B100009F44FC081110E940901EE2DF0E0EE0FA3
:100B2000FF1FE859FF4FA591B4918C91F82209F469
:100B300040C030920001609100018EE591E00E947A
:100B400007020E949C012B013C0184E6C82ED12C97
:100B5000E12CF12C0E949C01641975098609970902
:100B6000683E734081059105A8F3F1E0CF1AD108E2
:100B7000E108F10828EE420E23E0521E611C711CB0
:100B8000C114D104E104F10429F7A114B10409F45A
:100B900094CF0E94000091CF9E3040F4285031093C
:100BA00081E001C0880F2A95EAF7DECE2E50310988
:100BB000F7CF10920001BFCF109261011092600137
:100BC00088EE93E0A0E0B0E080936201909363012F
:100BD000A0936401B093650185E091E090935F017B
:100BE00080935E011092750110927401109277014A
:100BF00010927601109279011092780110927B0187
:100C000010927A0160917C016E7F6D7F60937C0110
:100C10006695617081E0682782E00E94320161E0A0
:100C200082E00E946001ECE9F0E0E491E0936E0163
:100C3000E8E8F0E0E491F0E0EE0FFF1FE458FF4F2A
:100C4000859194919093700180936F0160E083E0AF
:100C50000E94600180917C0181FD04C061E083E01D
:100C60000E94320183E080936A01EDE9F0E0E491B3
:100C7000E0936B01E9E8F0E0E491F0E0EE0FFF1F94
:100C8000E859FF4F8591949190936D0180936C0189
:100C9000809154018C3098F491E0980F9093540116
:100CA0008093AA0190E0FC01EE0FFF1FE80FF91FEF
:100CB000EA57FE4F88EB9BE09283818308958FEF84
:100CC0008093AA01089585E091E090935F0180935D
:100CD0005E0180915801909159018E55914071F4B7
:100CE000E0917101F0917201908180917301809582
:100CF0008923808310925901109258010895052E7E
:100D000097FB1EF400940E94960657FD07D00E94A0
:100D1000B10607FC03D04EF40C949606509540950E
:100D2000309521953F4F4F4F5F4F08959095809597
:100D3000709561957F4F8F4F9F4F08950E94D30606
:100D4000A59F900DB49F900DA49F800D911D11241F
:100D50000895B7FF0C949E060E949E06821B930B7B
:100D60000895A1E21A2EAA1BBB1BFD010DC0AA1FEC
:100D7000BB1FEE1FFF1FA217B307E407F50720F004
:100D8000A21BB30BE40BF50B661F771F881F991F7F
:100D90001A9469F760957095809590959B01AC01C8
:100DA000BD01CF010895A29FB001B39FC001A39FD1
:100DB000700D811D1124911DB29F700D811D112494
:100DC000911D0895991B79E004C0991F961708F0AA
:100DD000961B881F7A95C9F780950895EE0FFF1F1F
:100DE0000590F491E02D099410E0C2E6D0E004C033
:100DF000FE010E94EE062196C336D107C9F7F8948A
:100E0000FFCF01000000000702C1019A0206026341
:060E1000027902EE010070
:107E0000112484B714BE81FFF0D085E080938100F7
:107E100082E08093C00088E18093C10086E0809377
:107E2000C20080E18093C4008EE0C9D0259A86E02C
:107E300020E33CEF91E0309385002093840096BBD3
:107E4000B09BFECF1D9AA8958150A9F7CC24DD24C4
:107E500088248394B5E0AB2EA1E19A2EF3E0BF2EE7
:107E6000A2D0813461F49FD0082FAFD0023811F036
:107E7000013811F484E001C083E08DD089C08234E0
:107E800011F484E103C0853419F485E0A6D080C0E4
:107E9000853579F488D0E82EFF2485D0082F10E0AE
:107EA000102F00270E291F29000F111F8ED06801E7
:107EB0006FC0863521F484E090D080E0DECF843638
:107EC00009F040C070D06FD0082F6DD080E0C81688
:107ED00080E7D80618F4F601B7BEE895C0E0D1E017
:107EE00062D089930C17E1F7F0E0CF16F0E7DF06D8
:107EF00018F0F601B7BEE89568D007B600FCFDCFD4
:107F0000A601A0E0B1E02C9130E011968C91119780
:107F100090E0982F8827822B932B1296FA010C0160
:107F200087BEE89511244E5F5F4FF1E0A038BF0790
:107F300051F7F601A7BEE89507B600FCFDCF97BE46
:107F4000E89526C08437B1F42ED02DD0F82E2BD052
:107F50003CD0F601EF2C8F010F5F1F4F84911BD097
:107F6000EA94F801C1F70894C11CD11CFA94CF0C13
:107F7000D11C0EC0853739F428D08EE10CD085E9AC
:107F80000AD08FE07ACF813511F488E018D01DD067
:107F900080E101D065CF982F8091C00085FFFCCF94
:107FA0009093C60008958091C00087FFFCCF809118
:107FB000C00084FD01C0A8958091C6000895E0E648
:107FC000F0E098E1908380830895EDDF803219F02E
:107FD00088E0F5DFFFCF84E1DECF1F93182FE3DFCA
:107FE0001150E9F7F2DF1F91089580E0E8DFEE27F6
:047FF000FF270994CA
:027FFE00040479
:00000001FF
